:020000040800F2
:100000005019002001010008712C00083B2600084F
:10001000D9280008710A00081B4A000800000000E7
:100020000000000000000000000000001730000881
:10003000BB0B00080000000015300008DD30000890
:100040001B0100081B0100081B0100081B01000820
:100050001B0100081B0100081B0100081B01000810
:100060001B0100081B0100081B0100081B01000800
:100070001B0100081B0100081B0100081B010008F0
:100080001B0100081B0100081B0100081B010008E0
:10009000A54900081B0100081B0100081B010008FE
:1000A0001B0100081B0100081B0100081B010008C0
:1000B000593100081B0100081B0100081B01000842
:1000C0001B0100081B0100081B0100081B010008A0
:1000D0001B0100081B0100081B0100081B01000890
:1000E0001B0100081B0100081B010008DFF80CD0F1
:1000F00000F030FC00480047CD4B000850190020AC
:100100000648804706480047FEE7FEE7FEE7FEE7B1
:10011000FEE7FEE7FEE7FEE7FEE7FEE757310008F1
:10012000ED000008202A04DB203A21FA02F0002129
:10013000704721FA02F3D040C2F1200291400843F7
:100140001946704740EA01039B0703D009E008C93C
:10015000121F08C0042AFAD203E011F8013B00F88C
:10016000013B521EF9D27047D2B201E000F8012BD8
:10017000491EFBD270470022F6E710B513460A4627
:1001800004461946FFF7F0FF204610BD421C10F848
:10019000011B0029FBD1801A7047F0B480EA0102EC
:1001A000D40F4200B2EB410F02D20246084611467C
:1001B0004A0042D0C30DDDB2C1F3C752AD1A202DA3
:1001C00035DAC1F3160141F4000204B15242C5F11F
:1001D000200602FA06F12A411044B3EBD05F23D087
:1001E000C4B1012DA0EBC35009DCF0BC4FF00042BC
:1001F00002EAC352DBB200F5000000F06DBA400025
:1002000000F1807000EBC350A0F1807040EAD17023
:10021000490009E0490841EAC071A0EBC35000F56C
:100220000000400800EBC350F0BC00F04CBA614243
:10023000012202EB4101001BF6E7F0BC704781F0A0
:100240000041AAE780F00040A7E780EA010210B56C
:1002500002F00043400022D04A001FD0010E01EB03
:100260001261C0F35600C2F3560240F4000042F49B
:100270000002A0FB022000047F39140400D0401CBF
:1002800050EA124001D44000491EC2B20C0604EBF1
:10029000D010401C4008802A02D003E0002010BD8E
:1002A00020F00100002900DA0020184310BD30B40E
:1002B00080EA010202F0004530F0004221F00040E7
:1002C00013D090B1C30DD40DC2F31601C0F31600C4
:1002D000E41A41F4000140F400027D34914201D35C
:1002E000641C00E04900002C02DA30BC002070479A
:1002F0004FF400000023914201D3891A03434008C0
:100300004FEA4101F7D151B1914202D14FF0004182
:1003100005E002D24FF0010101E06FF0010103EBB3
:10032000C450284430BC00F0CEB9420005D0C0F320
:10033000C7525242914201DC0020704700EBC1508D
:1003400070472DE9FE4F804681EA0300C00F0C463E
:10035000009021F0004123F00045B8EB0200A941D4
:1003600005D24046214690461C460B46024623F0E5
:100370000040104347D0270DC7F30A00C3F30A51CA
:100380000290401A019040286BDAC3F3130040F446
:10039000801B0098924620B10023D2EB030A63EB46
:1003A0000B0B01985946C0F14002504600F06AF923
:1003B00006460D4650465946019A00F072F910EB78
:1003C00008006141002487EA115284EAE7731A4366
:1003D00040D0009A62B3019A012A4FEA075215DC15
:1003E000001B61EB02014FF0004202EA0752CDE927
:1003F0000042001C41F5801132462B4600F0A9F95D
:1004000003B0BDE8F08F40462146F9E7001B61EBE1
:100410000201001C41F5801300185B412018A2F571
:10042000001747EB030140EAD570B6196D4111E0A2
:100430006D084FEA360645EAC0754FEA0752001BC1
:1004400061EB0201001C41F5801149084FEA3000C0
:100450000019514132462B4603B0BDE8F04F00F081
:1004600069B90098012240000023D0EB020263EB3F
:10047000E073009821464FEAE074B8EB000061EBAE
:100480000401E9E783F000435BE781F0004158E7AE
:100490002DE9F04D81EA030404F0004B21F0004502
:1004A00014464FF0000A23F0004150EA050220D024
:1004B00054EA01021DD0C5F30A570246C5F31303DF
:1004C000C1F31300C1F30A5640F4801543F48013BE
:1004D000A7EB0608101BD64608F2FD3873EB0500A3
:1004E00002D308F1010801E092185B41B8F1000F56
:1004F00003DA00200146BDE8F08D00204FF48011A2
:10050000064684460EE0171B73EB050705D3121B46
:1005100063EB050306434CEA010C49084FEA30003F
:1005200092185B4150EA0107EDD152EA030012D064
:1005300082EA040083EA0501084305D0101BAB41A1
:1005400006D20122002306E000224FF0004302E021
:100550006FF0010253101AEB06004CEB085110EB40
:100560000A0041EB0B01BDE8F04D00F0E3B8C10F0C
:1005700080EAE0700844CA079623002100F0ACB876
:1005800096230022114600F0A7B80EB540F2334181
:1005900002910021CDE900110A460B4600F0D9F87E
:1005A00003B000BD00F0004220F00040C10DC0F3D8
:1005B000160040F400007F2901DA002070479629D8
:1005C00003DCC1F19601C84001E096398840002A59
:1005D000F4D04042704720F00040C10DC0F3160037
:1005E00040F400007F2901DA00207047962903DCDF
:1005F000C1F19601C840704796398840704700F0B5
:10060000004230F000400AD0C10D01F56071C0F326
:10061000160042EA0151C20840071143704700200A
:100620000146704701F0004330B421F0004150EA28
:10063000010206D00A0DA2F56072C1F31301002A6F
:1006400002DC30BC00207047440F44EAC104C10002
:10065000E01830BC00EBC25000F035B8002801DBD8
:10066000C0F10040002901DBC1F100418142704727
:10067000002801DBC0F10040002901DBC1F100418D
:1006800088427047202A04DB203A00FA02F1002059
:1006900070479140C2F1200320FA03F319439040C0
:1006A0007047202A06DBCB17203A41FA02F043EAD2
:1006B000E07306E041FA02F3D040C2F1200291401B
:1006C0000843194670470029A8BF7047401C4900DD
:1006D00008BF20F00100704710B4B0FA80FC00FAA7
:1006E0000CF050EA010404BF10BC704749B1CCF1D2
:1006F000200421FA04F411FA0CF118BF012121435E
:100700000843A3EB0C01CB1D4FEA00614FEA102018
:1007100042BF002010BC704700EBC35010440029BA
:10072000A4BF10BC7047401C490008BF20F0010066
:1007300010BC704710B5141E73F1000408DA401C99
:1007400041F1000192185B411A4301D120F00100F0
:1007500010BD2DE9F04D92469B4611B1B1FA81F2E0
:1007600002E0B0FA80F220329046FFF78BFF044699
:100770000F4640EA0A0041EA0B0153465A46084335
:1007800013D0114653EA010019D0C8F14002504677
:10079000FFF7C8FC05460E46504659464246FFF74D
:1007A00071FF084305D0012004E020463946BDE82A
:1007B000F08D0020054346EAE0762C4337430A9843
:1007C0006305E40AA0EB08000022FD0A44EA47544E
:1007D0000A3002D500200146E9E7010510196941F8
:1007E000DDE9084500196941BDE8F04DA2E72DE9B2
:1007F000FE4F81EA030404F0004421F0004100941C
:100800004FF0000B23F0004350EA01045ED052EA9F
:1008100003045BD0C3F30A54C1F30A552C44A4F279
:10082000F3340194A0FB0254C1F3130141F480118D
:10083000C3F3130343F4801301FB024400FB034E94
:10084000840A970A44EA815447EA8357A4FB07685D
:1008500002958D0A05FB07854FEA932C04FB0C5487
:100860002705029D4FEA065847EA1637B5EB0805FB
:100870006EEB070C870E920E47EA811742EA83124D
:10088000A7FB0201B6EB0B0164EB00042B0D43EA5E
:100890000C335E1844EB1C50DA465146E7FB02016C
:1008A000C5F313044FEA0B3343EA14534FEA0432FF
:1008B000019C43EA0603A4F10C040294009CCDE9D8
:1008C00000B4FFF746FF03B0BDE8F08F00200146FB
:1008D000F9E770B521F0004303430CD0C1F30A558A
:1008E0000024D5EB040564EB0403D617AD1AB3411D
:1008F00002DB0020014670BD201841EB025170BDA3
:100900000EB5C10F80EAE0700844CA07002140F22A
:1009100033438DE80E000A460B46FFF71AFF03B07B
:1009200000BD000030B5041E71F1000404DB4FF07F
:100930000044404264EB0101141E73F1000405DB26
:100940001C464FF00043524263EB0403994208BF38
:10095000904230BD064C074D06E0E06840F00103D0
:1009600094E8070098471034AC42F6D3FFF7C2FB77
:10097000C05B0008E05B00082DE9F04D00231A463B
:100980001B1A8A4103DB00200146BDE8F08DC1F34C
:100990000A52C1F3130141F480154FF0000BD10747
:1009A00002D100186D41521E0027044640F2FF118B
:1009B000384601EB620A3E468046024600204FF46C
:1009C0008011FFF7AFFBC2197141BB1846EB010064
:1009D000B4EB030C75EB000C04D3E41A65EB0005D3
:1009E00017460E46241908F101006D41804634284F
:1009F000E3DDF91946EB0600091BA84103D24FF0CD
:100A0000FF32134601E0002213461BEB070046EBC2
:100A10000A51BDE8F04DFFF78DBE70B58C1810F887
:100A2000015B15F0070301D110F8013B2A1106D133
:100A300010F8012B03E010F8016B01F8016B5B1E4D
:100A4000F9D12B0705D40023521E0DD401F8013B28
:100A5000FAE710F8013BCB1A921C03E013F8015B94
:100A600001F8015B521EF9D5A142D8D3002070BD18
:100A7000FEE70020704700207047000010B50022FC
:100A80000549064802F07CFD03490448403902F05C
:100A900071FD002010BD00000408002000030020AC
:100AA00010B504460146074802F064FD054802F00F
:100AB00045FD204602F0B0FA0349012008700020ED
:100AC00010BD00000003002020000020094A10B5DE
:100AD000D2F8B822D2F814220AB1012010BD0A4679
:100AE0000146044802F04CFDBDE81040014802F008
:100AF000A5BD00000003002038B50546684601F09A
:100B0000EDFE184C0098A0F50040A060FFF72FFD07
:100B10000246154B2946154802F02AFA6169FFF78B
:100B20003CFB6061FFF73EFD00B2114D60600028A4
:100B300003DB012002E0404205E0002002F030F833
:100B400060680028F7DB296880B24863A06809491B
:100B5000002802DB0122227002E0002222704042C3
:100B6000088038BD040000200AD7233CE0010020A3
:100B7000700200203600002010B5FFF701FD0221B1
:100B8000FFF7D3FB0549FFF760FB0549FFF75DFB66
:100B9000BDE810400349FFF78ABB00000000304168
:100BA000000060420000B4434FF41A61484341F230
:100BB0007071B0FBF1F0FFF7E3BC704772B6FEE76F
:100BC0002DE9F84FDFF8B891002409F1040A0AF181
:100BD000040B23460F270BF1040EC9E00125A540A5
:100BE0002A40AA427DD1674ED1F804C0ACEB06087A
:100BF000B44532D014DCBCF1030F3AD009DCBCF1AF
:100C0000000F2AD0BCF1010F1CD0BCF1020F31D172
:100C10001DE0BCF1110F17D0BCF1120F2AD119E061
:100C2000B8F5881F19D006DCB8F5803F15D0B8F5A7
:100C3000801F1FD111E0B8F5001F0ED0B8F5041FBA
:100C400018D10AE0CB6815E0CB681B1D12E0CB6819
:100C500008330FE0CB680C330CE08B682BB1012B11
:100C60004FF0080303D0456104E0042302E005616E
:100C700000E00023FF2A01D8064601E000F1040647
:100C80004FEA840501D9A5F12005D6F8008007FABE
:100C900005FC28EA0C0803FA05F548EA0508C6F839
:100CA00000804D68ED0062D5374DAE6946F0010613
:100CB000AE61AD6924F0030605F001050095334DE2
:100CC00006EB050CDCF80850A607360F07FA06F805
:100CD00025EA0805DFF8B880404503D14FF0000849
:100CE00017E044E0DFF8AC80404502D14FF0010846
:100CF0000FE0DFF8A480404502D14FF0020808E081
:100D0000DFF89880404502D14FF0030801E04FF032
:100D1000040808FA06F848EA0508CCF808804D6887
:100D2000D9F80060ED034D4601D5164300E0964327
:100D30002E604D68DAF80060AD03554601D51643C4
:100D400000E096432E604D68DBF80060ED025D46E2
:100D500001D5164300E096432E604D68DEF8006032
:100D6000AD02754601D5164300E096432E60641C23
:100D70000D682A46E5407FF431AFBDE8F88F0000EA
:100D8000000401400000111000100240000001406A
:100D900000080140000C0140001001400014014017
:100DA000C26821EA02030A4043EA02410161704736
:100DB0000AB1016170470904FBE70000014880683F
:100DC00070470000B000002002488168027811449A
:100DD00081607047B0000020074810B5016841F0FD
:100DE00010010160032000F075F8002000F006F803
:100DF00000F024F8002010BD0020024070B50D4D19
:100E000004464FF47A712878B1FBF0F00A4909687A
:100E1000B1FBF0F000F088FF48B9102C07D2002297
:100E20002146501E00F036F800206C6070BD012095
:100E300070BD0000B0000020BC0000200C4808B5C8
:100E4000816941F001018161816901F00101009135
:100E5000C16941F08051C161C06900F080500090CB
:100E60000448416821F0E06141F00071416008BD33
:100E70000010024000000140002809DB00F01F02C2
:100E8000012191404009800000F1E020C0F80011EC
:100E900070470000F0B40E4B1B680C46C3F30223EE
:100EA000C3F10705042D00D90425191D072901D216
:100EB000002300E0DB1E012606FA05F1491E214051
:100EC00099409E40761E16403143F0BC03F0BABDF7
:100ED0000CED00E0064900F0070208684FF6FF033A
:100EE000184040EA0220034A10430860704700009F
:100EF0000CED00E00000FA0510B50C0607D501F076
:100F0000070101EB810100EBC100283005E001EB96
:100F1000810100EBC10000F5B47099B232B1012239
:100F200002730181190C4181002010BD002202735F
:100F3000C180F9E7704701EB810200EBC202D0F8F3
:100F4000E802D26B02F029BD01EB810200EBC20284
:100F5000D0F8E802D2F87C2102F082BD70B50446D8
:100F60000B0601F0070000EB800104EBC1014FF01C
:100F700001024FF0000503D581F82920283103E054
:100F800081F8695101F5B471087094F8A80201283C
:100F900008D084F8A822206803F0A2F984F8A852A7
:100FA000002070BD022070BD70B5044601F00F0036
:100FB0006268904201D9012070BD0B0601F0070064
:100FC00000EB800104EBC1014FF001024FF000057E
:100FD00003D581F82920283103E081F8695101F512
:100FE000B4718D70087094F8A802012808D084F8B4
:100FF000A822206803F011FA84F8A852002070BDDE
:10100000022070BD2DE9F05F04685FEA424C0B7866
:101010008D69B4F850C04FF000064BF68F7948F256
:10102000800A48F68F7B48F2C00E4FF480672AD5BD
:101030004FF0020808EBC308C44407EB4C07E45B1D
:10104000C4F30904A54203D32D1B8D6101D00BE02D
:101050008E61066836F8235005EA090585F40055C7
:1010600045EA0A0526F82350520609D50D7803688B
:1010700033F8252002EA0B0242EA0E0223F825206B
:1010800084B30A8929E04FF0060808EBC308C4447A
:1010900007EB4C07E45BC4F30904A54203D32D1B03
:1010A0008D6101D00BE08E61066836F8235005EAA9
:1010B000090585F4005545EA0A0526F8235052062D
:1010C00009D40B78056835F8232002EA0B0242EABE
:1010D0000E0225F823202CB14A894969006823466D
:1010E00003F06AFC2046BDE8F09F2DE9F05F05465D
:1010F0000C4600685FEA426C16462278A369B0F895
:1011000050C04FF0000148F68F774CF280094FF63F
:10111000FF7B4FF4004E4FF4806A6CD54FF002080D
:1011200008EBC208E0440AEB480C30F80C00C0F3AE
:101130000900834211D91B1AA3610FD0730407D58C
:101140002E6836F822303B4043EA090326F8223065
:1011500094F82420012A08D0C6E0A161114628464F
:10116000FFF7E9FE70046CD4BEE06269024462617C
:10117000E2690244E2612369226A9A4202D3184674
:10118000111A03E084F824100AB110462162617834
:1011900011B1012923D02BE02968B1F85020114466
:1011A000227801EB021101F2044148B13E280FD828
:1011B0004208C30700D0521C0BEA82220A8017E0C3
:1011C0000A8822F4F8420A800A8842F40042F5E7CD
:1011D0004209C30600D1521E4EEA8222EEE7296878
:1011E000B1F850201144227801EB0211A1F8040457
:1011F00083B2228974E04FF0060808EBC208E0448D
:101200000AEB480C30F80C00C0F30900834211D3FC
:101210001B1AA3610FD0730407D42E6836F822304E
:101220003B4043EA090326F8223094F82420012A9F
:1012300011D059E0A16111462846FFF77CFE7004E9
:1012400052D42278296831F82200384040EA090057
:1012500021F8220048E0626902446261E2690244C6
:10126000E2612369226A9A4203D31846111A216265
:1012700004E00AB11046216284F8241062782968DB
:1012800012B1012A22D029E0B1F85020114422786D
:1012900001EB021101F20C4148B13E280FD842087F
:1012A000C30700D0521C0BEA82220A8016E00A888B
:1012B00022F4F8420A800A8842F40042F5E7420923
:1012C000C30600D1521E4EEA8222EEE7B1F850204A
:1012D0001144227801EB0211A1F80C04628983B257
:1012E0006169286803F086FB2278296831F82200BA
:1012F00048F6BF73184080F0300048F2800318436E
:1013000021F822000020BDE8F09F01F0070101EB69
:10131000810100EBC100D0F8840170472DE9F04154
:1013200004460F0601F0070000EB800104EBC10149
:101330004FF001064FF0000503D581F829602831F0
:1013400003E081F8695101F5B47108700A61CB704E
:101350004A7802B1C881022B00D10D7194F8A8021D
:10136000012809D084F8A862206802F08BFE284684
:1013700084F8A852BDE8F0810220FBE770B50C4666
:1013800001F0070505EB850100EBC101C1E95F2311
:101390000022C1F8842181F8692181F8685101F5A2
:1013A000B4716207006803F08DF8002070BD70B55D
:1013B00004460D4601F007006168884201D901200A
:1013C00070BD29064FF000064FF0010207D500EB73
:1013D000800104EBC10181F82920283107E005EBE9
:1013E000850104EBC10181F8696101F5B4718A706E
:1013F000087094F8A802012807D084F8A822206871
:1014000003F047F8680702D006E0022070BD04F53B
:101410002C71206802F0FFFF84F8A862002070BDE4
:1014200070B50C4601F0070505EB850100EBC10125
:10143000C1E90F23012281F84C208B6400234B6407
:1014400081F8292001F8285F6207006803F03AF864
:10145000002070BD1FB50446006803F0A9FA00041F
:1014600002D5204601F005FC206803F0A1FA4005F2
:101470000CD5206830F8441F21F48061018020469B
:1014800000F01EF90021204600F035F9206803F035
:101490008FFA400405D5206830F8441F21F48041BC
:1014A0000180206803F084FA800405D5206830F8B4
:1014B000441F21F400510180206803F079FAC00430
:1014C00014D5206830F8401F21F004010180206805
:1014D00030F8401F21F008010180204600F003F998
:1014E000206830F8441F21F480510180206803F007
:1014F0005FFA00053ED522680020694632F82030A8
:1015000021F81030401CC0B20828F7D332F8400F41
:1015100040F001001080206830F8402F22F00102D6
:1015200002802068B0F844205205FBD530F8442FE3
:1015300022F4806202800020236831F8102023F812
:101540002020401CC0B20828F6D3206830F8401F85
:1015500041F008010180206830F8441F21F4006147
:101560000180206830F8401F41F0040101802046CE
:1015700000F0F6F8206803F01BFA800508D5206813
:1015800030F8441F21F400710180204600F0AFF8CC
:10159000206803F00DFAC00505D5206830F8441F17
:1015A00021F4807101801FBD2DE9F04186B0040057
:1015B00004D094F8A902002520B108E0012006B06B
:1015C000BDE8F08184F8A852204600F05BF80320C3
:1015D00084F8A902206802F017FF04F11001142218
:1015E00088466846FEF7AEFD94E80F0002F076FEEE
:1015F0000226D0BB0021206803F0F4F90020012767
:101600000FE000BF00EB800104EBC10181F82970FD
:1016100001F8280FC881CD700D614D61401CC0B22A
:101620008D6161688142EDD8002011E000EB8001FE
:1016300004EBC10181F8695181F8680181F86B51AF
:10164000C1F87851C1F87C51401CC0B2C1F880513A
:1016500061688142EAD8142241466846FEF772FD6D
:1016600094E80F0002F0C7FE10B184F8A962A5E764
:1016700084F8245084F8A972206802F0BAFE002091
:101680009DE7000008B500680B49884212D10B485D
:10169000C16941F40001C161C069002200F4000089
:1016A000009011461420FFF7F5FBBDE80840142018
:1016B000FFF7E2BB08BD0000005C004000100240E4
:1016C00070B5044680680125022801D0FFF776FA3C
:1016D0002946D4F8E80202F0ACFAD4F8E802BDE8F2
:1016E000704002F068BAD0F8E80202F08CBAD0F884
:1016F000E80202F092BA10B5044690F8A802012858
:101700000BD0012084F8A80284F82410206803F08C
:101710006BF9002084F8A80210BD022010BDD0F89B
:10172000E82200F52C71104602F08FBA10B504467D
:1017300090F8A802012810D0012084F8A80220689F
:1017400003F027F901212046FFF7F4FB206802F09F
:101750004EFE002084F8A80210BD022010BD00003B
:1017600010B50446D0F8E80202F0AEFAA0690028ED
:1017700004D00348016841F00601016010BD00007B
:1017800010ED00E02DE9F84305460078354CC00720
:1017900054D0E0690026C00008D4E06940F08050D1
:1017A000E061E069012600F0805000902E48016859
:1017B000C90512D40168804641F480710160FFF7C9
:1017C000FDFA074605E000BFFFF7F8FAC01B6428E2
:1017D00023D8D8F80000C005F6D5206A10F4407070
:1017E00021D0A98801F4407181421CD0206A1F4990
:1017F000012220F440700A6000220A602062C007C3
:1018000011D0FFF7DBFA074641F2883808E000BF45
:10181000FFF7D4FAC11B414502D90320BDE8F88384
:10182000206A8007F4D5206A696820F44070084374
:1018300020621EB1E06920F08050E06128788007C6
:1018400005D56068A96820F44040084360602878A6
:10185000C00605D56068E96820F480000843606030
:101860000020DBE7001002400070004040044242CC
:101870002DE9F0470F46050061D0434E306800F077
:101880000700B84209D2306820F0070038433060C2
:10189000306800F00700B84251D128683B4C8107FE
:1018A00012D5400703D5606840F4E0606060287896
:1018B000000703D5606840F4605060606068A96804
:1018C00020F0F000084360602878C00728D06868DE
:1018D000012810D02168022810D0890700292EDAAB
:1018E000616821F0030101436160FFF767FA8046F8
:1018F00041F288390DE021688903EFE78901EDE7BE
:10190000FFF75CFAA0EB0801494502D90320BDE8C6
:10191000F0876068696800F00C00B0EB810FEFD1D0
:10192000306800F00700B8420BD9306820F007009B
:1019300038433060306800F00700B84201D0012021
:10194000E5E72878400705D56068E96820F4E0609D
:10195000084360602878000706D56068296920F48C
:10196000605040EAC100606000F018F86168084A01
:10197000C1F30311515CC84006490860064800687D
:10198000FFF73CFA0020C2E70020024000100240AE
:101990001A5B0008BC000020B400002012A185B032
:1019A0000FC98DE80F0014A0144A00680490516814
:1019B000134801F00C03042B10D0082B0ED1C1F3F7
:1019C0008343C9031DF803000AD5516804AAC1F373
:1019D0004041515C0A4A5043B0FBF1F005B07047FA
:1019E00008494843FAE7000002030405060708090E
:1019F0000A0B0C0D0E0F1010010200000010024027
:101A000000127A0000093D002DE9F84F040070D063
:101A10002078C04DC00749D06868C0F38100012814
:101A200007D06868C0F38100022809D16868C00344
:101A300006D52868800339D560680028E7D035E0EE
:101A40006068B0F5803F0BD010B1B0F5A02F11D079
:101A5000286820F480302860286820F4802002E084
:101A6000286840F480302860606890B1FFF7A6F9DC
:101A700006460AE0286840F480202860F0E700BFAE
:101A8000FFF79CF9801B642873D828688003F7D57A
:101A90000CE0FFF793F9064605E000BFFFF78EF96B
:101AA000801B6428F0D828688003F7D420789A4EE9
:101AB00080074FF001094FF0000839D5686810F031
:101AC0000C0F07D06868C0F38100022809D168684C
:101AD000C00306D42868800714D52069012808D1DE
:101AE00010E02069B0B1C6F80090FFF767F907462B
:101AF00005E00AE1FFF762F9C01B0228C4D8286894
:101B00008007F7D52868616920F0F80040EAC10035
:101B100028600DE0C6F80080FFF750F9074604E0A2
:101B2000FFF74CF9C01B022823D828688007F7D498
:101B3000207800072CD57948A169D9B1C0F8009068
:101B4000FFF73CF9074604E0FFF738F9C01B02280D
:101B50000FD8686A8007F7D571484FF4FA510068CA
:101B6000B0FBF1F0009000BF0098411E0091FAD246
:101B70000EE080E0C0F80080FFF720F9074604E09F
:101B8000FFF71CF9C01B022875D8686A8007F7D4D4
:101B90002078400760D5E8690027C00008D4E869CC
:101BA00040F08050E861E869012700F08050009023
:101BB0005C480168C90513D40168834641F480710B
:101BC0000160FFF7FBF8824606E000BFFFF7F6F87A
:101BD000A0EB0A0064284ED8DBF80000C005F5D55C
:101BE000E06801280AD008B1052813D0286A20F03F
:101BF00001002862286A20F0040002E0286A40F010
:101C000001002862E06841F2883B98B1FFF7D6F8FE
:101C100082460BE0286A40F004002862EEE700BF2D
:101C2000FFF7CCF8A0EB0A0159455AD8286A80077B
:101C3000F6D50CE0FFF7C2F8824605E0FFF7BEF8E4
:101C4000A0EB0A0159454CD8286A8007F6D41FB189
:101C5000E86920F08050E861E06988B36968C1F301
:101C60008101022944D00228C6F8608004D0FFF721
:101C7000A5F8044638E034E0FFF7A0F8074604E092
:101C8000FFF79CF8C01B02282BD828688001F7D4E6
:101C9000206AB0F5803F05D16868A16820F4003063
:101CA00008436860D4E908010843696821F47411A5
:101CB00008436860C6F86090FFF780F8044606E0C5
:101CC00025E000BFFFF77AF8001B022809D8286832
:101CD0008001F7D51BE000BFFFF770F8001B02285A
:101CE00002D90320BDE8F88F28688001F4D40EE003
:101CF0000128F7D06868226A00F48031914204D14B
:101D0000616A00F47010884201D00120EAE70020E7
:101D1000E8E7000000100240000042428004424216
:101D2000BC0000200070004010B5401EB0F1807F64
:101D300001D3012010BD4FF0E02460610F21601736
:101D400002F080FE0020A06107202061002010BD6D
:101D50007047704770B590F83C20012A26D00124C6
:101D600080F83C40022280F83D2003685A689D6854
:101D700022F070060A6832435A600D4B02689A429C
:101D800008D0B2F1804F05D00A4B9A4202D00A4BDC
:101D90009A4204D1496825F080031943916080F884
:101DA0003D40002180F83C10084670BD022070BD07
:101DB000002C0140000400400008004010B5040061
:101DC00003D094F83D0010B107E0012010BD0020C1
:101DD00084F83C00204600F01FF8022084F83D0003
:101DE000211D206801F0BEF9012084F8460084F826
:101DF0003E0084F83F0084F8400084F8410084F8F5
:101E0000420084F8430084F8440084F8450084F8D4
:101E10003D00002010BD000008B501681048B1F178
:101E2000804F0BD00F4A914207D1C16941F00201A6
:101E3000C161C06900F00200009008BDC16941F0B5
:101E40000101C161C069002200F00100009011464B
:101E50001C20FFF71FF8BDE808401C20FFF70CB856
:101E6000001002400004004090F83D10012901D00C
:101E700001207047022180F83D100168CA6842F0D5
:101E80000102CA6000680B49884208D0B0F1804F57
:101E900005D00949884202D00849884204D18168A6
:101EA00001F00701062903D0016841F0010101603A
:101EB00000207047002C0140000400400008004052
:101EC00070B5044690F83C00012817D0012584F82D
:101ED0003C50022084F83D002068826822F077029E
:101EE00022F47F4282600868502830D00DDC202820
:101EF0004DD005DC98B310283BD148E0022070BDDE
:101F0000302844D0402834D139E0602828D07028C7
:101F100006D0B0F5805F2CD0B0F5005F29D10AE083
:101F2000CB68D1E90121206801F05FF92068816860
:101F300041F0770109E0CB68D1E90121206801F087
:101F400054F92068816841F48041816011E0CA68D9
:101F50004968206801F0FEF95021206807E016E08A
:101F6000CA684968206801F006FA6021206801F01B
:101F700046F984F83D50002084F83C0070BDCA68E2
:101F80004968206801F0E6F940212068EFE72268FF
:101F900001461046EBE72DE9F0410D46040003D061
:101FA00094F83D0018B108E00120BDE8F081002060
:101FB00084F83C00204600F041F8022084F83D00FF
:101FC0002068816844F2070291438160211D2068E6
:101FD00001F0C8F8226890689169166A2B68AF69A9
:101FE000034340F20330814341EA0721A868EF69C7
:101FF00008434FF6FC418843E96840EA0720014363
:1020000028692F6A000140EA0730084369686D6952
:1020100026F0220646EA051529439360226890615E
:1020200054F8460B0162012004F81F09E075207680
:10203000E0762077A0750020B7E7000000B585B0F6
:102040000021009101910291039100680D4988429D
:1020500016D10D48C16941F00401C161C16901F0A7
:1020600004010491816941F0080181618069694638
:1020700000F008000490C02000900448FEF7A0FD86
:1020800005B000BD0008004000100240000C0140F7
:1020900070B590F83E60044690F83F5090F842309A
:1020A00090F84320022021B104290ED0012E1BD12B
:1020B00014E0012E18D1012B16D184F83E0084F8CB
:1020C000420001220021206820E0012D0CD1012ACC
:1020D0000AD184F83F0084F8430014E0012D03D1B5
:1020E000012B01D1012A01D0012070BD84F83E00EE
:1020F00084F83F0084F8420084F843000122002164
:10210000206801F065F801220421206801F060F8E0
:102110002068016841F001010160002070BD704736
:1021200070B50446006801694FF00005C94389078E
:1021300015D4C168C943890711D4E91E0161012082
:102140002077206880698007204602D0FFF7E7FFEC
:1021500004E000F0BFF8204600F04EF92577206833
:102160000169C943490717D4C168C943490713D452
:102170006FF004010161022020772068806910F46B
:10218000407F204602D0FFF7CAFF04E000F0A2F82B
:10219000204600F031F9257720680169C943090715
:1021A00016D4C168C943090712D46FF00801016150
:1021B000042020772068C0698007204602D0FFF7FE
:1021C000AEFF04E000F086F8204600F015F9257710
:1021D00020680169C943C90617D4C168C943C90643
:1021E00013D46FF010010161082020772068C069C6
:1021F00010F4407F204602D0FFF791FF04E000F08A
:1022000069F8204600F0F8F8257720680169C9438D
:10221000C90708D1C168C943C90704D1891E016132
:10222000204600F039F920680169C943090609D43C
:10223000C168C943090605D46FF0800101612046D9
:10224000FFF786FD20680169C943490609D4C168C2
:10225000C943490605D46FF040010161204600F0F2
:10226000EBF920680169C94389060BD4C168C943E9
:10227000890607D46FF0200101612046BDE8704057
:10228000FFF767BD70BD000000B585B0002100916B
:1022900001910291039100680B49884211D10B48CA
:1022A000816941F0040181618069694600F00400A0
:1022B0000490402000900220019003900448FEF713
:1022C0007FFC05B000BD000000040040001002408B
:1022D00000080140704770B5044690F83C000D4678
:1022E00001280AD0012084F83C0042B1042A18D009
:1022F000082A2AD00C2A4DD139E0022070BD20686E
:1023000000F086FF2068816941F008018161206842
:10231000816921F004018161206881692A69114382
:1023200011E0206800F09CFF2068816941F40061A1
:1023300081612068816921F48061816120688169FF
:102340002A6941EA0221816124E0206800F0B4FF9B
:102350002068C16941F00801C1612068C16921F0AC
:102360000401C1612068C1692A69114311E0206834
:1023700000F0CEFF2068C16941F40061C1612068AE
:10238000C16921F48061C1612068C1692A6941EA9B
:102390000221C161002084F83C0070BD10B504002A
:1023A00003D094F83D0010B107E0012010BD0020DB
:1023B00084F83C00204600F01EF8022084F83D001E
:1023C000211D206800F0CEFE012084F8460084F82C
:1023D0003E0084F83F0084F8400084F8410084F80F
:1023E000420084F8430084F8440084F8450084F8EF
:1023F0003D00002010BD70477047000010B5044636
:10240000022249B104290ED0082913D094F84100C2
:10241000012816D0012010BD94F83E000128F9D102
:1024200084F83E200FE094F83F000128F2D184F8B0
:102430003F2008E094F840000128EBD184F84020C8
:1024400001E084F841200122206800F0C1FE0F491C
:102450002068884203D1426C42F400424264206802
:10246000884208D0B0F1804F05D00949884202D097
:102470000849884204D1816801F00701062903D088
:10248000016841F001010160002010BD002C0140F5
:1024900000040040000800402DE9F05F5649006844
:1024A000096888423FD15549554E594B91F800C0B3
:1024B0000024544FDFF850A1DFF850B11A88F0889B
:1024C00006F114054FF00109BCF10A0F2BD2DFE829
:1024D0000CF02A2A2A052C2A2A752A649846B2F575
:1024E000FA7F15D800F018FBB8F8001049A0491C75
:1024F000A8F800100068C6F80B003481B4722C7084
:102500006C70AC70EC702C7138786871B08825E014
:10251000A8F8004081F80090002000F05DFBCAF8A8
:102520000040CBF80040BDE8F09F9846B2F57A7FB6
:1025300025D800F057FBB8F8001038A0491CA8F8BF
:1025400000100068C6F80B003481B4722C706C70F7
:10255000AC70EC702C71387868717088284A010A68
:10256000A9711432E871A2F10C01C81C00F080FDC1
:10257000C6F80B403481B4727461B461D3E7A8F833
:10258000004081F80090002000F026FB2548CAF8A2
:102590000040CBF800400460C5E700F0D3F922A06A
:1025A0000068C6F80B003481B4722C706C70AC708B
:1025B000EC702C7138786871B08810E03069FEF7E3
:1025C0009BFA1BA00068C6F80B003481B4722C7013
:1025D0006C70AC70EC702C71387868717088084A37
:1025E000010AA971E871BDE8F05F1432A2F10C0193
:1025F000C81C00F03DBD000028020020050000209E
:1026000034000020040000200C00002008000020FE
:10261000000000205054554E000000005354554E09
:1026200000000000180000205052554E000000002D
:102630005352554E000000007047FEE7F0B50023EE
:102640000A24302537261F4611E000BFB4EB107F67
:1026500002D905EB107C01E006EB107C01F813C0F9
:1026600001EB430C00015B1C8CF80170DBB2934260
:10267000ECD3F0BD2DE9F04186B00024244800944D
:10268000019402940394816941F010018161816990
:1026900001F010010491816941F02001816181699B
:1026A00001F020010491816941F004018161816997
:1026B00001F004010491816941F0080181618069A0
:1026C000144F00F008004FF40055049000222946F2
:1026D0003846FEF76DFBDFF84080002218214046A7
:1026E000FEF766FB0095022601250396CDE901540D
:1026F00069463846FEF764FA1820CDE90005CDE9B1
:10270000024669464046FEF75BFA06B0BDE8F08136
:1027100000100240001001400008014010B586B0D2
:1027200000241648009401940294039404944FF0FA
:102730008041059401602F21C0E9011442F20F711C
:10274000C0E903148461FFF739FB08B1FEF736FADC
:102750004FF48050009069460848FFF7B1FB08B17C
:10276000FEF72CFA049404A904480594FFF7F2FA42
:10277000002801D0FEF722FA06B010BD2802002082
:1027800030B58DB000240794089409940A940B94F2
:102790001C2168460C94FDF7EEFC1E481C49602580
:1027A00001602F21C0E9011540F2E731C0E90314AF
:1027B0008461FFF703FB08B1FEF700FA4FF4805085
:1027C000079007A91348FFF77BFB08B1FEF7F6F95E
:1027D0001048FFF7E3FD08B1FEF7F0F90B940BA9E1
:1027E0000C480C94FFF7B6FA08B1FEF7E7F9CDE90B
:1027F000005402940022694606480494FFF76BFDDA
:1028000008B1FEF7DBF90348FFF73EFD0DB030BD20
:10281000000400407002002010B58CB024216846EE
:10282000FDF7A9FC00241648099414490A94C0E94C
:1028300000144FF6FF71C0E9024104618461032076
:10284000CDE900040120CDE902040494CDE905405E
:10285000079469460A480894FFF79DFB08B1FEF704
:10286000ADF9099409A906480A94FFF773FA0028FC
:1028700001D0FEF7A3F90CB010BD00000008004025
:10288000B802002010B500220F49104801F05EF890
:1028900008B1FEF793F90E490C4801F03BFA08B174
:1028A000FEF78CF90B49094800F05CFE08B1FEF711
:1028B00085F9064801F084FA002803D0BDE81040ED
:1028C000FEF77CB910BD000050000020000300207E
:1028D0009C010020A0000020FEE7000004490A68D7
:1028E000526A026009684FF4004048627047000075
:1028F000B802002010B50F48FFF7B6FA00210E48C5
:10290000FFF77CFD00210D48FFF7C2FB04210B48B7
:10291000FFF7BEFB0A4800F075FB00231A464FF094
:102920007E51074800F05EFBBDE81040012000F03A
:1029300037B900002802002070020020B8020020F1
:10294000E00100202DE9F8436A4C6B4D6846FFF723
:10295000C5FFA86800990844A0F50040A860616A16
:10296000206BFDF77BFE16D8D4F83080E76841462F
:102970003846FDF76AFC4146FDF767FCFDF712FE9D
:10298000FDF7F5FD064601213846FDF7CEFC414630
:10299000FDF75BFC3EE0A16A206BFDF75FFE0ED801
:1029A0002769216B3846FDF750FC6169FDF7F5FB9F
:1029B000FDF7F8FDFDF7DBFD06462F612DE0D4E9BC
:1029C0000B10FDF74BFE27D8D4F83090E769494645
:1029D0003846FDF73AFCD4F818800646494640468A
:1029E000FDF733FC4946FDF730FC3146FDF7D5FBDA
:1029F000216AFDF7D2FBFDF7D5FDFDF7B8FD0646D0
:102A000001214046FDF791FC4946FDF71EFC394681
:102A1000FDF7C3FB286100E0A6683848007800286D
:102A2000304605D0FDF7D7FD80B2FEF7A5F806E0E9
:102A3000FDF7D1FD80B2FEF79FF880F00040FDF772
:102A4000B1FDE860A868FDF792FD0646E868FDF76D
:102A50008EFD014627482A4B3246143800F088FA8A
:102A6000FDF7A0FD00B2274E274F4FF000094FF0B1
:102A700001086860002803DB012002E0404205E015
:102A8000002000F08DF868680028F7DB396880B214
:102A90004863D4E90B10FDF7EBFD14D21B4985F810
:102AA00001804FF4004009684862C5F80890C5F8F5
:102AB0000490C5F81090C4F83090A6F800903968DA
:102AC0000020486309E0A868002802DB85F8008040
:102AD00002E085F8009040423080206BFDF78FFDCA
:102AE0000B4A0C4BFDF72DFCFDF79CFD2063BDE868
:102AF000F8830000F40100200400002034000020CE
:102B00000AD7233C3800002070020020B8020020C1
:102B10007B14AE47E17A843F38B503466846FFF739
:102B2000DDFE1A4C0099A0680844A0F50040A060A2
:102B30001846FEF721F80546A068FDF718FD024685
:102B4000134B2946134800F013FAFDF72BFD00B292
:102B5000114D6060002803DB012002E0404205E0E7
:102B6000002000F01DF860680028F7DB296880B2BB
:102B70004863A0680949002802DB0122227002E0B4
:102B8000002222704042088038BD0000040000206E
:102B90000AD7233CE001002070020020380000200A
:102BA00010B50C4C68B1012812D101220821204631
:102BB000FEF7FEF800222046BDE810401021FEF787
:102BC000F7B8002208212046FEF7F2F80122F2E7CA
:102BD00010BD0000000801400149096848637047C2
:102BE0007002002038B503466846FFF777FE1B4C9D
:102BF0000098A0F50040A0601846FDF7D5FF0546F7
:102C0000A068FDF7B4FC0246154B2946154800F0B4
:102C1000AFF96169FDF7C1FA6061FDF7C3FC00B26D
:102C2000114D6060002803DB012002E0404205E016
:102C30000020FFF7B5FF60680028F7DB296880B245
:102C40004863A0680949002802DB0122227002E0E3
:102C5000002222704042088038BD0000040000209D
:102C60000AD7233CE001002070020020360000203B
:102C7000FEE72DE9F84F044640F68F7B48F60F7AC1
:102C80004FF002094FF4806868E1B0F8441011F089
:102C90000F0638D030F8267039047ED530F826106B
:102CA00001EA0B0141F0800120F8261006EB8600B6
:102CB00004EBC00595F8740105F5B47500286DD0D6
:102CC000E87802286BD02A78216831F8220048F68B
:102CD0008F73184048F2C003184321F82200297866
:102CE000206830F82120B0F8503052047DD509EB2F
:102CF000C1015A1808EB4201415A8905890D00911A
:102D000074D02A89D2E0C9062DD4018801EA0A01CB
:102D100041F400410180206804F12805B0F85030EA
:102D20002A7809EBC2015A1808EB4201405AC0F355
:102D300009006064E16B0844E06300212046FEF76F
:102D4000FAF894F8240000289ED0A86900289BD1A6
:102D500094F8240040F080012068A0F84C10002076
:102D600084F82400FAE0018804F5B4750A0521D539
:102D7000B0F850302A78062101EBC2015A1808EB4E
:102D80004201405A04F52C71C0F30903EB61EA8853
:102D9000206801F011FE216802E0A2E062E072E02A
:102DA000088800EA0B0040F0800008802046FEF70B
:102DB000B6FCD3E00904D5D5018801EA0B0141F046
:102DC000800101802068B0F850202B78062101EBAB
:102DD000C3010A4408EB4201405A83059B0DEB6195
:102DE00010D0696971B1EA8801E053E051E02068D0
:102DF00001F0E2FDE9696869084468610021204644
:102E0000FEF7A2F82068B0F850100844296900F2D3
:102E10000C4051B13E2910D84A08C90700D0521CB5
:102E20004FF6FF7101EA82210FE0018821F4F84199
:102E30000180018841F4004107E04A09C90600D138
:102E4000521E4FF4004141EA82210180206801882E
:102E50004BF68F72114081F4405148F280021143C9
:102E600001807BE02068B0F850102A78062303EB3D
:102E7000C2020A4408EB4201415A8905890D0091BA
:102E800018D0EA8812E03A4629462046FEF7BAF8FA
:102E900000900FE0062202EBC1015A1808EB420134
:102EA000415A8905890D009104D06A896969009B9E
:102EB00001F082FDE96900980844E86169690098B9
:102EC00008446861A86918B129690098814204D949
:102ED00029782046FEF738F803E02946206801F0FB
:102EE000F1FA38063AD5226806EB860004EBC001F9
:102EF00032F8260000EA0A0040F4004022F82600DA
:102F000091F82B002831022801D1F80522D422683B
:102F1000B2F850300D7809EBC500034408EB4300CC
:102F2000105A8A69C0F3090082420CD9121A8A61C8
:102F30000BD04A6902444A61CA691044C8612068DA
:102F400001F0C0FA0AE000208861E9B22046FDF7EE
:102F5000F2FF03E03A462046FEF7C7F82068B0F8D3
:102F6000441009043FF591AE0020BDE8F88F000041
:102F70002DE9F04799460B46044611461846FDF7E1
:102F80005EF917490546086029462068FDF75DF996
:102F9000804629462069FDF700F90646206149462A
:102FA0006068FDF752F94FF0FF31FDF7BEF9314689
:102FB000FDF74BF907462846E168FDF740F9A1689F
:102FC000FDF743F94946FDF772F906463946404692
:102FD000FDF7E3F83146FDF7E0F8E560BDE8F0877E
:102FE0001C00002010B50C46034600F00BF8C3E9A6
:102FF000004203499C604FF400400968486210BDDC
:10300000B802002000210161C160014801607047E1
:103010001C0000207047704770B5144C05460078BE
:103020002178884220D1611C687C097888421BD1B4
:1030300004220121284602F05FFD006844F8060FD3
:1030400003220521284602F057FD018824F8031CBD
:10305000807804F8010C08221146284602F04CFD45
:10306000016861604068A06070BD00002100002020
:103070002DE9F041074615460E46122001F0F4FFF7
:103080000E4904460A7802703868C4F80100308896
:10309000A4F80500B078E0712868A0606868E06076
:1030A000887820744878607412212046FDF70EFD60
:1030B0002046BDE8F04101F061BD00002100002084
:1030C00030B5002306E0C45CCD5CAC4201D00020EA
:1030D00030BD5B1C9342F6DB012030BDFDF774BEB2
:1030E00030B593B028216846FDF745F814210AA8A9
:1030F000FDF741F8002401200F941094119401046D
:1031000012948DE8130004900005CDE90810022503
:1031100007956846FEF778FC08B172B6FEE70F2007
:10312000CDE90A054FF48060CDE90C4001210AA8E1
:103130000E94FEF79DFB08B172B6FEE710200F90CB
:10314000800412900FA8FEF71DFB002801D072B674
:10315000FEE713B030BD70470148FEF7E1BF000045
:1031600028020020F0B50268164B174C174D4FF09F
:103170008047984205D0B84203D0A04201D0A8426F
:1031800003D122F070064A683243984205D0B84213
:1031900003D0A04201D0A84203D122F44074CA68EF
:1031A00022434C6922F08002224302608A68C26294
:1031B0000A688262984201D1096901630121416173
:1031C000F0BD0000002C0140000400400008004059
:1031D00010B501F01F030121046A99408C43046279
:1031E000016A9A401143016210BD10B5846842EA39
:1031F000032224F47F440A432243826010BD826884
:1032000022F070020A4342F007018160704700001B
:1032100030B5026A22F001020262026A43688469E0
:1032200024F073050C682C4322F002058A682A43B7
:103230000A4DA8420BD122F00805CA6823F4407356
:103240002A434D6922F004021D438B692B434360DE
:10325000846149684163026230BD0000002C014076
:1032600030B5026A22F010020262026A4368846981
:103270000D6824F4E64444EA05248D6822F0200217
:1032800042EA05120B4DA8420ED1CD6822F0800211
:1032900042EA05124D6923F4406343EA85038D69D0
:1032A00022F0400243EA85034360846149688163F8
:1032B000026230BD002C014030B5026A22F48072F7
:1032C0000262036A4268C46923F4007324F0730540
:1032D0000C682C438D6843EA05230C4DA8420ED19F
:1032E000CD6823F4006343EA05234D6922F440527C
:1032F00042EA05128D6923F4806342EA05124260B6
:10330000C4614968C163036230BD0000002C014004
:1033100030B5026A22F480520262046A4268C369CC
:103320000D6823F4E64343EA05238D6824F4005432
:1033300044EA0534064DA84204D14D6922F4804286
:1033400042EA85124260C36149680164046230BD8B
:10335000002C014010B5036A046A24F001040462E1
:10336000846924F0F00444EA021423F00A020A43B8
:103370008461026210BD10B5036A23F0100303627A
:103380008369046A23F4704343EA023224F0A00301
:1033900043EA01118261016210BD2DE9F041D0F8CC
:1033A000C032D0F8B822CAB101EB810500EB850428
:1033B0000026E7693FB103EBC5039B6BB7FBF3F551
:1033C00003FB157323B1C2F814620020BDE8F0813D
:1033D00000231A46E66100F080FCF6E70220F5E7DC
:1033E00070B50546D0F8B84200F07BFBC4F80C027B
:1033F000D5F8B80248B1D5F8BC12D4F80402CA68AE
:1034000004F503719047002070BD022070BD70B5B7
:1034100004460026812100F0B7FA0025012120464C
:10342000E56200F0B1FA82212046C4F86C5100F048
:10343000ABFA2564D4F8B80248B1D4F8BC0204F55C
:103440002E7440688047206800F017FE25603046E3
:1034500070BD10B5D0E9AE4159B194F80002FF2813
:1034600007D08B6894F8012221469847FF2084F802
:103470000002002010BD00000A21018000487047B2
:10348000C40000204321018000487047140100203F
:103490004321018000487047D00000204321018073
:1034A00000487047580100202DE9F04104460026ED
:1034B000007C4FF40077012590B340230222812144
:1034C000204600F063FB4023E562022201212046F2
:1034D00000F05CFB0823032282212046C4F86C51D3
:1034E00000F054FB4FF40770256400F0C7FDC4F8EA
:1034F000B802F8B10546D4F8BC0200688047002045
:10350000C5F81402C5F81802207CD5F8042298B139
:1035100040230121204600F045FB3046BDE8F08104
:10352000FFE73B4602228121204600F02FFB3B466D
:10353000E562CAE70126F0E73B46EAE710B5D0F8B6
:10354000B81269B1027C002AD1F8042205D04023C8
:10355000012100F027FB002010BD4FF40073F7E7B6
:10356000022010BD02460220002902D00020C2F82D
:10357000BC127047D0F8B802C0F80412002070479F
:10358000D0F8B802C0F81022C0F808120020704726
:103590002DE9FC410546D0F8B87200208DF80000F6
:1035A000ADF80400064608780C4610F0600121D002
:1035B00020293BD1E288AAB10006607807D5D5F86A
:1035C000BC128B6839469847E288394626E087F86E
:1035D0000002A07987F80102E2883946284600F007
:1035E0006AF828E0D5F8BC12607800228B68214682
:1035F000984720E0607820B10A2809D00B2815D11F
:1036000010E095F89C02032810D1022201A905E0E0
:1036100095F89C02032809D101226946284600F04A
:1036200064F808E095F89C02032804D02146284657
:1036300000F036F802263046BDE8FC8110B5D0F81F
:10364000B812A1B1D1F814220AB1012010BD012293
:10365000C1F81422D1F810220263B1F8102293B2FB
:10366000D1F80822812100F038FB002010BD022093
:1036700010BD10B5D0F8B42252689047002010BD9C
:10368000134610B50A46002100F08CFA002010BD48
:10369000134610B50A46002100F01FFB002010BDA4
:1036A00010B50446802100F0FDFA2046BDE8104028
:1036B000002100F0F7BA10B50323C0F85C21C0F870
:1036C0009432C0F8602113460A46002100F06AFADD
:1036D000002010BD10B505210023C0F894121A4631
:1036E000194600F05FFA002010BD10B50223C26138
:1036F000C0F89432026213460A46002100F0EDFA47
:10370000002010BD10B504210023C0F894121A4601
:10371000194600F0E2FA002010BD000010B50A467C
:10372000024903A000F0E2F8004810BDC4050020E3
:1037300043444320436F6E6669670000122008808F
:10374000004870477000002010B50A46024903A0E7
:1037500000F0CCF8004810BDC405002043444320CD
:10376000496E74657266616365000000042008801C
:10377000004870476C00002010B50A46024903A0BB
:1037800000F0B4F8004810BDC405002053544D6942
:1037900063726F656C656374726F6E69637300004A
:1037A00010B50A46024903A000F0A0F8004810BD79
:1037B000C405002053544D3332205669727475612C
:1037C0006C20436F6D506F727400000010B51A20AA
:1037D00008800A480168001D0468001D0068081878
:1037E00009D008220649FEF729FF054904221031B5
:1037F0002046FEF723FF0248801E10BDE8F7FF1F9A
:1038000086000020F8B504460020ADF80000488886
:103810000D46010A082948D2DFE801F047040917DC
:1038200047473C45D4F8B012207C0A6819E0207C58
:1038300002260028D4F8B40205D0C16A6846884739
:10384000014646703EE0816AF8E7C0B206282CD2F5
:10385000DFE800F0030A1014181CD4F8B002426824
:1038600005E0694690471CE0D4F8B0028268E2B1F6
:10387000207CF6E7D4F8B002C268F8E7D4F8B002CA
:103880000269F4E7D4F8B0024269F0E7D4F8B00274
:103890008269ECE7207C40B9D4F8B402416B6846F9
:1038A000884701460EE0207C20B129462046FFF7DC
:1038B000F7FEF8BDD4F8B402016B684688470146AC
:1038C00007204870BDF8000048B1EA8852B1824232
:1038D00000D90246ADF800202046FFF706FFE88831
:1038E0000028E6D12046FFF70DFFF8BD70B5002394
:1038F00000281ED00446002502E06D1CEDB2641CB9
:103900002678002EF9D1022404EB450414801278A5
:10391000CA545B1C0322CA5400245B1C06E0CA5430
:103920005B1CDAB28C54521CD3B2401C0278002AC1
:10393000F5D170BD01004FF0000004D0012901D085
:10394000022901D0022070470120704710B580B1D4
:10395000D0F8B43213B10023C0F8B43209B1C0F8C2
:10396000B012012180F89C12027000F0BFF8002014
:1039700010BD022010BD10B5D0F8C002FDF714FB39
:10398000BDE81040FFF7D6BF10B5D0F8C002FDF774
:10399000E5FABDE81040FFF7CDBF2DE9F04117462D
:1039A000044651B1D4F8B40242691AB194F89C02A9
:1039B000032851D00220BDE8F081D4F894320025CC
:1039C00004F11400022B03D0042B3AD0C3B33CE023
:1039D000D0E903639E4207D9F11AC1608AB2394621
:1039E0002046FFF755FE12E08068B0FBF3F103FBC1
:1039F000110199B9984211D3D4F8981288420DD286
:103A0000002211462046FFF743FEC4F898520023D7
:103A10001A461946204600F0C5F816E0D4F8B4025C
:103A2000C16829B194F89C02032801D12046884737
:103A30008021204600F036F92046FFF74BFE04E0D7
:103A4000FFE78021204600F02DF994F8A00201281C
:103A500004D184F8A05201E0204690470020AAE754
:103A600070B51546044649B1D4F8B40282691AB15A
:103A700094F89C02032830D0022070BDD4F8941230
:103A800004F5AA70032902D005291ED027E0D0E949
:103A900003218A420BD9531AC3600846834200D3DC
:103AA00003469AB229462046FFF7EAFD17E0D4F80C
:103AB000B402016929B194F89C02032801D120467F
:103AC00088472046FFF71EFE09E000200146C4F8A3
:103AD0009402204600F0E6F801E0204690470020DE
:103AE00070BDD0F8C002FDF710BC000010B5044650
:103AF0001C481D49C0F8E842C4F8C0020160082112
:103B000041600221816000218161C1610162FDF794
:103B10004BFD08B1FDF752F80022D4F8C00218237B
:103B2000114604F53074FDF7E7F95823002280218F
:103B30002068FDF7E1F9C023002281212068FDF70C
:103B4000DBF94FF48873002201212068FDF7D4F9D6
:103B50004FF48073002282212068FDF7CDF9002008
:103B600010BD0000640A0020005C00400A0601F05D
:103B70007F01D0F8C00201EB810100EBC10002D54A
:103B800090F82A00704790F86A01704710B51C46FB
:103B90001346D0F8C0022246FDF7C0FBBDE8104036
:103BA000FFF7C8BE10B5D0F8C002FDF7E7FBBDE8CF
:103BB0001040FFF7BFBE70B50022044640231146F7
:103BC000FFF7E4FF40260125C4F864613346002274
:103BD00080212046C4F85851FFF7D8FF6662A561DE
:103BE00084F89C520020C4F894026060C4F8A402D7
:103BF000D4F8B80228B1D4F8B402002142682046B3
:103C00009047002070BD90F89C12042903D190F8D1
:103C10009D1280F89C120020704710B590F89C12FD
:103C2000032904D1D0F8B412C96901B18847002032
:103C300010BD01740020704710B5D0F8C002FDF728
:103C40005AFDBDE81040FFF775BE70B5044600F59B
:103C50002A70054600F04AF80120C4F89402B4F82E
:103C6000AE02C4F8980294F8A80210F01F010AD01E
:103C700001290DD0022910D000F08001204600F06B
:103C800011F8002070BD2946204600F09EF8F8E7A4
:103C90002946204600F0CAF9F3E72946204600F0FD
:103CA0001DF9EEE710B5D0F8C002FDF780FBBDE8C6
:103CB0001040FFF73FBE10B5D0F8C002FDF736FD4B
:103CC000BDE81040FFF736BE90F89C1280F89D12B8
:103CD000042180F89C120020704710B5D0F8C00273
:103CE000FDF79EFBBDE81040FFF724BE0A78027086
:103CF0004A7842708A78CB7802EB032242800A79B4
:103D00004B7902EB032282808A79C97902EB012187
:103D1000C18070470246002011B1C2F8B41270474A
:103D20000220704710B5D0F8B42202241AB11268EC
:103D3000904700B90024204610BD000070B50E4623
:103D40001E4D897804462970012931D894F89C02C7
:103D500002280BD003280FD031462046FFF7A0FCE5
:103D600029782046BDE87040FFF783BCD9B1032015
:103D7000616084F89C0209E071B16068884212D0E9
:103D8000C1B22046FFF775FC297861602046FFF735
:103D9000C9FF02280CD006E0022084F89C022046CD
:103DA0006160FFF766FC2046BDE87040FFF7AABCE3
:103DB00031462046BDE87040FFF772BCC0000020CD
:103DC00010B5FFF778FF002010BD2DE9F0410A780B
:103DD000002612F0600208D0202A01D0402A70D1BB
:103DE000D0F8B422926890476DE04B78002201250C
:103DF0000A2B66D2DFE803F0405D6557650805656C
:103E00002C29FFF7FFFC5EE004468888D8B9C888F3
:103E1000C8B94888802816D200F07F0794F89C0221
:103E2000032810D084F89E7239462046FFF704FF1D
:103E30002046FFF767FC1FB1022084F89C0242E095
:103E400084F89C523FE020463BE0FFF777FF3AE0E2
:103E5000CB88012B35D190F89C32012B04D0022B5A
:103E600002D0032B2DD104E08260012200F1080171
:103E700016E00122011D13E090F89C22012A03D0D4
:103E8000022A01D0032A1CD1CA88022A19D1C5608E
:103E9000D0F8A41209B10321C160022200F10C0183
:103EA000FFF723FC0FE0498801290CD1C0F8A45288
:103EB00011E090F89C32012B08D0022B06D0032B86
:103EC00004D0FFF7EDFB3046BDE8F08149880129B9
:103ED000F9D1C0F8A422FFF715FCF4E72DE9F04171
:103EE0000A46044610780027097910F060030AD0CA
:103EF000202B01D0402B50D1D4F8B4021146836856
:103F0000204698478FE0C0F34110012806D0507832
:103F1000D0B301282AD003283FD107E0D4F8B40257
:103F2000114683682046BDE8F041184794F89C028A
:103F3000022802D0032872D10AE071B380296ED022
:103F40002046FFF7AFFE80212046FFF7ABFE6AE078
:103F5000508838B931B1802904D0D08810B92046B2
:103F6000FFF7A0FE2046FFF7CDFB5CE094F89C0233
:103F70000228E2D0032852D1508898BB4806F1D0DD
:103F80002046FFF7F8FCEDE7FFE794F89C020026D7
:103F9000022803D0032842D112E040E009B1802971
:103FA0003DD1080601F07F0000EB800004EB8001AA
:103FB00001D5143101E001F5AA7102220E602AE058
:103FC000080601F00F0000EB800004EB80000AD52A
:103FD000806920B301F07F0000EB800004EB8005D6
:103FE00014350BE01FE0D0F85801C0B101F07F009C
:103FF00000EB800004EB800505F5AA7541B180292E
:1040000006D02046FFF7B2FD10B10120286000E085
:104010002E60022229462046FFF767FB03E0114687
:104020002046FFF73DFB3846BDE8F08170B50546F8
:1040300008780C4610F0600003D0202801D04028FA
:1040400016D195F89C02012803D0022801D003283C
:104050000ED1207901280BD8D5F8B4028268284601
:104060009047E188014306D12846FFF74BFB02E069
:104070002846FFF715FB002070BD704700487047C9
:10408000440800202DE9F0470C78002630F8243051
:1040900048F68F121340CA78002A7DD0012A7CD0BE
:1040A000022A02D0032A7FD0012648F2800213435D
:1040B00020F824300D7830F8254048F68F731C40E6
:1040C0002C43144320F825400D7B48F2C00C48F6E1
:1040D000BF744CF280074BF68F79EDB391F80080F6
:1040E000C24630F8285048F280181D4045EA0805BD
:1040F00020F82A50B0F8505091F80080054405EBA4
:104100000815B1F8088028F00108A5F80084B0F877
:10411000505091F80080054405EB0815B1F80A806D
:1041200028F00108A5F808844D78002D0D7830F8A6
:1041300025804FEA48487DD0B8F1000F07DA30F803
:10414000258008EA030848EA070820F825800F7848
:1041500030F827506D0600E02CE006D530F82750E7
:104160001D4045EA0C0520F82750CB780D78012B2F
:1041700030F8253003EA040301D083F02003134311
:1041800020F825300B7830F8231001EA090111439B
:1041900020F82310304602E003E008E004E0BDE828
:1041A000F08743F4007380E743F4C0637DE743F492
:1041B00080637AE74D782DB3B0F850500F780544FE
:1041C00005EB0715CF8827F00107A5F800740F78D5
:1041D00030F827506D0606D530F827501D4045EAC7
:1041E0000C0520F82750CB78012B06D00B7830F83F
:1041F0002310214081F02001C9E70B7830F823100B
:104200002140C4E7B0F850400D78044404EB051495
:10421000CD8825F00105A4F80854B0F850400D7879
:10422000044404EB05140D6904F20C4475B13E2DF1
:1042300014D800E030E04FEA550CED0701D00CF146
:10424000010C4FF6FF7505EA8C2511E0258825F451
:10425000F8452580258845F4004509E04FEA551CBE
:10426000ED0601D1ACF1010C4FF4004545EA8C2577
:1042700025800D7830F82540640405D530F82540B8
:104280001C403C4320F825400B7830F8231001EA0D
:10429000090181F440517AE7B8F1000F07DA30F8EC
:1042A000258008EA030848EA070820F825800F78E7
:1042B00030F827506D0606D530F827501D4045EAE6
:1042C0000C0520F827500D7830F8253003EA090353
:1042D00083F44053134320F825308EE700207047C5
:1042E0002DE9F04391F80C804F780A7848F6BF7CAE
:1042F0004BF68F7948F2800348F2C0054CF28006F5
:1043000048F68F74B8F1000F28D0002F30F82270D3
:104310004FEA474748D0002F05DA30F8227027408F
:10432000374320F822700A7830F822707F0605D5CE
:1043300030F8227027402F4320F822700D7830F893
:1043400025202240324320F825200C7830F8242004
:1043500002EA0C021A4320F824201AE07FB130F858
:104360002260760605D530F8226026402E4320F8DC
:1043700022600A7830F8221001EA0C010EE030F8D1
:1043800022506D0405D530F822502540354320F8E1
:1043900022500A7830F8221001EA0901194320F866
:1043A00022100020BDE8F083002F05DA30F82270DB
:1043B0002740374320F822700A7830F822607606CA
:1043C00005D530F8226026402E4320F822600E7872
:1043D00030F8262022402A4320F826200C7830F896
:1043E000242002EA09021A4320F82420C1E7002011
:1043F000704700207047012120F8401F00210180F4
:10440000818001820846704730F8401F21F43F4107
:104410000180002070470020704730B50A7BB2BB96
:104420004A7848F68F7548F28004C2B10B7830F8AC
:104430002320520607D530F823202A4048F2C00531
:104440002A4320F82320CA78012A20D00A7830F89D
:10445000221048F6BF73194081F0200114E00A7859
:1044600030F822305B0407D530F822302B404CF274
:1044700080052B4320F822300A7830F822104BF6C2
:104480008F73194081F44051214320F822100020FD
:1044900030BD10B54A780978002A48F2800330F818
:1044A000212005D048F6BF74224082F0100204E0BB
:1044B0004BF68F74224082F480521A4320F8212058
:1044C000002010BD2DE9F04F0D464A78097B0446C7
:1044D0004FF0000948F68F7A48F2800B4FF6FF77CD
:1044E0004FF40048012A09D000297DD0E87802283D
:1044F0007BD001287AD00120BDE8F08FAE69286911
:10450000864200D9064681B1E97802291CD0287874
:1045100034F820104906B4F85010214401EB001083
:1045200070D5A0F80C646A8928E1B3B2EA88204605
:10453000696900F05FFAB4F850002978204400EB74
:104540000110A0F8046435E1296A814276D92978FE
:1045500034F8210048F2801200EA0A00104324F8DF
:104560002100286A801B2862287834F82010490628
:10457000697876D511B1012921D027E0B4F850101F
:10458000214401EB001000F20C404EB13E2E0FD83A
:104590007108F20700D0491C07EA8121018015E06B
:1045A000018821F4F8410180018841F40041F5E7D8
:1045B0007109F20600D1491E48EA8121EEE7B4F8FC
:1045C0005020111901EB0010A0F80C646A89B3B2F5
:1045D0002046696900F00EFA68693044686129690B
:1045E000286A884206D902E0EDE00DE178E1801BFF
:1045F000286202E00646C5F82090687818B10128C4
:1046000024D02BE0B7E0B4F850002978204400EB28
:10461000011000F204404EB13E2E10D87108F2078E
:1046200000D0491C07EA8121018017E0018821F4AC
:10463000F8410180018841F40041F5E786E0710905
:10464000F20600D1491E48EA8121EDE7B4F8500096
:104650002978204400EB0110A0F804642A896FE057
:10466000FFE711B1012921D027E0B4F8501021440F
:1046700001EB001000F204404EB13E2E0FD871083D
:10468000F20700D0491C07EA8121018015E001886A
:1046900021F4F8410180018841F40041F5E77109F6
:1046A000F20600D1491E48EA8121EEE7B4F8501025
:1046B000214401EB0010A0F804642A89B3B220461B
:1046C000696900F097F96869304468612969286A66
:1046D000884202D9801B286202E00646C5F8209075
:1046E000687810B1012822D029E0B4F85000297868
:1046F000204400EB011000F20C404EB13E2E0FD8CA
:104700007108F20700D0491C07EA8121018016E0F8
:10471000018821F4F8410180018841F40041F5E766
:104720007109F20600D1491E48EA8121EEE7B4F88A
:1047300050100819297800EB0110A0F80C646A8960
:10474000B3B22046696900F055F933E02A7834F8AD
:10475000220048F68F63184040EA0B0024F822003C
:10476000B4F850002A78204400EB02108BB2A0F875
:1047700004342A89E5E7A0F804642A89B3B2204604
:10478000696900F037F9687810B1012808D011E0A4
:10479000297834F8210048F2C00200EA0A0006E055
:1047A000297834F821004CF2800200EA0A00104314
:1047B00024F82100297834F8210048F6BF7210400F
:1047C00080F03000DFE0A9692869814202D9091A26
:1047D000A961B6E00846C5F81890B2E0088820F450
:1047E000F8400880088840F400400BE03E2876D866
:1047F0004208C00700D0521C07EA822002E000BF36
:1048000048EA82200880B6E092B9B4F850002978CE
:10481000204400EB0110296900F2044069B13E29EF
:1048200013D84A08C90700D0521C07EA8221018028
:10483000687888B1012832D03AE0018821F4F84143
:104840000180018841F40041F1E74A09C90600D11D
:10485000521E48EA8221EAE7B4F850002978204441
:1048600000EB0110296900F20C4049B13E290FD834
:104870004A08C90700D0521C07EA8221018017E0CC
:10488000018821F4F8410180018841F40041F5E7F5
:104890004A09C90600D1521E48EA8221EEE7B4F85F
:1048A00050100819297800EB0110298AA0F80C147F
:1048B000E869B0B3297834F82100420401D54206F2
:1048C00003D444F24002104255D134F8210048F29A
:1048D000C00200EA0A00104324F821004BE03CE04B
:1048E000A9692869814202D9091AA96102E008462A
:1048F000C5F818908AB9B4F850102A78214401EB11
:10490000021101F2044168B13E2813D84208C307DE
:1049100000D0521C07EA82220A80697889B10129F5
:1049200021D028E00A8822F4F8420A800A8842F45A
:104930000042F1E74209C30600D1521E48EA822232
:10494000EAE7B4F850102A78214401EB021101F291
:104950000C4100287FF44AAF40E74209C0067FF4CB
:104960004FAF521E4CE7B4F8502011192A7801EBD2
:104970000211A1F80C04297834F821004BF68F724B
:10498000104080F4405040EA0B0024F82100002041
:10499000B2E50021A0F844104FF43F41A0F84010C8
:1049A000002070470148FCF755BD0000640A002054
:1049B000B0F844007047000010B500EB42005C08FE
:1049C00000F5806009D000BF30F8042B01F8012BFE
:1049D000120A01F8012B641EF6D1DA0701D0008813
:1049E000087010BD0020704711B98021A0F84C104C
:1049F0000020704710B55B1C00EB42005B0800F51F
:104A0000806009D011F8012B11F8014B42EA042211
:104A100020F8042B5B1EF5D110BDFEE7490050EADB
:104A2000C12018BF04204A0D18BF40F0010040F219
:104A3000FF72B2EB515F08BF40F00200012808BFCF
:104A4000052070470907090E002804DB00F1E0206B
:104A500080F80014704700F00F0000F1E02080F8AB
:104A6000141D70472DE9F0414F1E00EBC7010446AD
:104A7000D1E9000115461E4637F006020DD02A4640
:104A80003346FBF7B4FE7F1E04EBC703D3E90023D4
:104A9000FBF757FC37F00602F1D1022F25D0042F87
:104AA00013D0062F18BFBDE8F0812A463346FBF726
:104AB0009EFED4E90A23FBF744FC2A463346FBF763
:104AC00096FED4E90823FBF73CFC2A463346FBF765
:104AD0008EFED4E90623FBF734FC2A463346FBF767
:104AE00086FED4E90423FBF72CFC2A463346FBF769
:104AF0007EFED4E90223FBF724FC2A463346FBF76B
:104B000076FED4E90023BDE8F041FBF71ABC0000B3
:104B10000022134610460149FBF7BABC0000F03FE3
:104B2000FBF70FBC0022134610461146FBF7B0BC42
:104B300040F2013200204FF0E041FBF7CABE000016
:104B4000024A00201107FBF7C4BE000001FDFFFF71
:104B500002E008C8121F08C1002AFAD17047704746
:104B6000002001E001C1121F002AFBD170470000A4
:104B70000149086070470000DC01002010B50028E2
:104B800021D0114B0022001F196803E0814203D895
:104B90000A4649680029F9D152B11368841A9C4227
:104BA00004D1006818441060104602E0506000E034
:104BB000186039B102680B1A934203D10B681A448A
:104BC00002604968416010BDD401002086B0FCF746
:104BD00003F9FEF785FAFDF74DFDFDF79FFDFDF7A3
:104BE000CFFDFDF719FEFDF74DFEFDF783FEFF4CEF
:104BF0000126FF4FDFF8FCA3DFF8FC83DFF8FC930E
:104C0000DFF8FCB3267000253878002837D04FF441
:104C10000051FC48FCF7C4F80422FBA1FC48FEF755
:104C20004FFA08B1022026E00422FAA1F848FEF764
:104C300047FA08B105201EE00422F8A1F448FEF767
:104C40003FFA08B1062016E00422F6A1F048FEF76C
:104C500037FA08B108200EE00422F4A1EC48FEF770
:104C60002FFA08B10A2006E00422F2A1E848FEF774
:104C700027FA10B10B20207000E026703D702078DC
:104C80000C28C1D2DFE800F006060706065D6C06B8
:104C9000FD067BFCB8E7D84AE849DD48FEF7E8F9AD
:104CA000E748CAF80050FEF7ADF9E6494FF4004076
:104CB00009684862E448058098F80100FBF760FC49
:104CC000E249FBF7F4FA019098F80000FBF758FC72
:104CD0000199FBF762FADA49086098F80300FBF7DC
:104CE0004FFCDA49FBF7E3FA019098F80200FBF772
:104CF00047FC0199FBF751FAD149486098F8060042
:104D0000FBF743FC02460B460020D14900F0E2F9D4
:104D1000CDE9020198F80500FBF737FCDDE9022335
:104D2000FBF7B6FBCDE9020198F80400FBF72DFC78
:104D3000DDE90223FBF705FBFBF774FCC049886043
:104D400052E1AD4ABD49B248FEF792F998F8011018
:104D500098F8000001EB0020A9F80600032033E1D9
:104D6000A54AB649AA48FEF783F998F8011098F8C1
:104D7000000001EB0020A9F80600042024E19E4A6F
:104D8000AE49A348FEF774F998F8071098F8062082
:104D900001EB0222A9F8062098F80500462802D067
:104DA000522803D004E089F8006001E089F800503F
:104DB000A348FEF727F9CBF80050CAF8005098F83E
:104DC0000100009000F00F00FBF7DAFB0190009863
:104DD00020F00F00FBF7D4FB039098F80000009040
:104DE0000007000DFBF7CCFB0290009800090003C0
:104DF000FBF7C6FB0299FBF7D0F90399FBF7CDF956
:104E00000199FBF7CAF993490860019098F80300EB
:104E1000029000F00F00FBF7B3FB0090029820F027
:104E20000F00FBF7ADFB049098F80200029000071A
:104E3000000DFBF7A5FB0390029800090003FBF7A8
:104E40009FFB0399FBF7A9F90499FBF7A6F90099D1
:104E5000FBF7A3F97F494860009098F8070003909A
:104E600000F00F00FBF78CFB0290039820F00F007E
:104E7000FBF786FB039098F806000490000701E01A
:104E8000A4E078E0000DFBF77BFB05900498000997
:104E90000003FBF775FB0599FBF77FF90399FBF717
:104EA0007CF90299FBF779F96A49886002904FF022
:104EB000FF310198FBF739FA6649C860009808612C
:104EC0004FF03F410098FBF7C0F90099FBF7BDF99F
:104ED0000199FBF7ECF95F4948614FF03F410198B8
:104EE000FBF7B3F95B498861DDE90110FBF7ADF928
:104EF0000099FBF7DCF90099FBF74FF95549C861B8
:104F00004FF0FF310098FBF710FA0099FBF79DF97D
:104F10000199FBF7CCF9059000990846FBF795F944
:104F200004904FF03F410298FBF78FF90299FBF78D
:104F30008CF90199FBF789F90499FBF7B8F9059900
:104F4000FBF77DF943490862DDE90001FBF7AFF9A2
:104F500040494862019000990298FBF7A8F93D4941
:104F6000886201460198FBF718F93A49C862084679
:104F70000563092028E0204A30492548FEF778F8E3
:104F800098F8070098F8062000EB022080B2A9F8F4
:104F9000060098F80510462902D052290AD012E0DE
:104FA000FBF7EAFD2C49FBF782F9C9F8100089F8F4
:104FB000006008E0FBF7E0FD2849FBF778F9C9F845
:104FC000100089F80050072020701DE60A4A1B498E
:104FD0000F48FEF74DF80020FDF7FEFD2048CBF806
:104FE000005005601F48056026700DE60500002092
:104FF00020000020100000202B00002034000020A2
:105000000C000020001001405350494400000000F3
:10501000270000205054554E000000005354554EB8
:10502000000000005352554E000000005052554EF3
:105030000000000053544F500000000024000020E6
:10504000E0010020B8020020000000200000204104
:1050500000002440F40100200000C8420000C8C243
:105060000800002018000020F0B50B30154D20F08E
:1050700007010024144A0FE003688B420BD38B42D4
:1050800005D95E1A43184768C3E9006700E0436822
:10509000136002C004E0021D10680028ECD1204615
:1050A000002802D1286808B10020F0BD064A074850
:1050B0001060074A121A22F00702C0E900240120FA
:1050C0002860D7E7D8010020D4010020540D00202B
:1050D000501500202DE9F04D1D460C4698B017469E
:1050E00021F0004123F00043002814BF4FF0010CD1
:1050F0004FF0000C0CEB440CFE4A0CEB02064FEA9E
:10510000620C66452BD33E0018BF012606EB450610
:105110001644F94A964222D3F84A53EA070C02D0C1
:10512000944205D148B918B000201146BDE8F08D71
:10513000002808BF4FF0000C01D04FF0010C0CEB21
:10514000440212F5001F0AD8002F14BF4FF0010CC3
:105150004FF0000C0CEB450212F5001F07D918B0F8
:105160003A462B462146BDE8F04DFFF7D9BC002258
:10517000DFF88CA3002CB8BF534526DADFF884C3D0
:105180006345A8BF022220DADFF870C39C451CDC0F
:10519000DFF874C30CEB235CBCF1140F08DDCCF119
:1051A000340627FA06FC0CFA06F6BE420DD108E0DA
:1051B0005FB9CCF1140623FA06FC0CFA06F69E42FF
:1051C00003D10CF00102C2F1020251EA000C19D124
:1051D000002D17DA002C18BF022A01D0012A07D0AF
:1051E0000220FFF7C5FC18B0BDE8F04DFFF790BCFA
:1051F0000220FFF7BDFCFFF78BFC18B081F00041E7
:10520000BDE8F08DB7F1000C6CD1534525D104F108
:10521000804212F5801201BF00280020B74918B063
:1052200008BFBDE8F08DB548884207DC002DA1BF5E
:105230006046294618B0BDE8F08D07E0281E05DA63
:1052400080F0004118B06046BDE8F08DAF49794468
:10525000D1E9000118B0BDE8F08DDFF8A0C26345C8
:1052600025D1002D1FDA19B1514512D1D8B909E065
:10527000002840F0EC82A24A214618B062F31E01D9
:10528000BDE8F08D0020214618B060F31E01BDE896
:10529000F08D08DA18B02346BDE8F04D0246002034
:1052A0006146FBF7F5B818B02146BDE8F08D5145D1
:1052B00018DAB5F1804F0DD0A5F1005CBCF1FF5CB0
:1052C00010D1B4F1000C0DDB18B06146BDE8F04D13
:1052D00000F0ECBB234618B00246BDE8F04D19467D
:1052E000FBF785BA060024F0004C3BD1D9B15145FB
:1052F00033D1002C06DD002DA1BF0020514618B08F
:10530000BDE8F08D002C01DD002D1BDB002C13DA35
:10531000002D11DB012A4FF0000014BF78497C49B1
:1053200018B0BDE8F08D022A18BF002C0AD0012A5F
:1053300008D1002C06DA0AE0002CB8BF002D11DAE3
:10534000012A04D0002018B00146BDE8F08D18B045
:1053500000204FF00041BDE8F08DA1F14050B0F1C8
:105360007F601AD0012000EBE47050EA020421D0E3
:10537000624C521E4FF0000B104304BF4FF0000B65
:10538000644C654883427CDD644A654893421FDD76
:10539000884217DB002D25DB37E0002C00DA4AB10C
:1053A000022A0CBF01204FF0FF3018B0BDE8F04DCD
:1053B000FBF7A6BA0120FFF7DBFB18B0BDE8F04D04
:1053C000FFF7B0BB4D4A8A4202DC002D0ADC1CE02C
:1053D000814202DA002D18DA04E0484B994220DDC0
:1053E000002D12DD0220FFF7C3FBFFF7A1FB0546EE
:1053F0000E460022534658462146FBF7F8F918B0EE
:1054000066F31E012846BDE8F08D0220FFF7B0FBD1
:10541000FFF796FB0A46214618B062F31E01BDE86D
:10542000F08D002230466146FBF72CF880460E4690
:105430006FF00102FBF74DFA4FF05532394BFBF795
:1054400024F842463346FBF7D2F90022364BFBF7ED
:105450001CF8824642463346049110461946FBF733
:10546000C6F95246049BFBF7C2F98A4600904FF0FA
:10547000C0422E4B40463146FBF7B9F92C4A2B4B24
:1054800000E027E0CDE9060151460098FBF7AFF9AF
:1054900082460191274A284B40463146FBF7A7F93F
:1054A0005246019BFAF7EEFF82460B4602460591F3
:1054B000DDE90601FAF745FFDDE906230026884607
:1054C0003046FAF7DFFF5246059BFAF7DEFF024649
:1054D00000F07EB90020B1F5801F07DA3522304692
:1054E0006146FBF7F6F906466FF0340000EB2150F9
:1054F00024E00000FFFF1F00FFFF0F000000F03F4F
:105500000000F07F0000404301FCFFFF660900003F
:105510000000F0FF0000F0BF0000E0410000F04399
:10552000FFFFEF3F5555D53F0000E03F4715F73FE0
:10553000FE822B6544DF5DF80BAE543EA0F2FF30D7
:105540000190C1F3130040F07F6141F0405102919E
:10555000FE498842D8BF002004DDFD498142C8BF12
:10556000012001DD0D9008E000200D900198401C05
:1055700001900298A0F5801002900299F5487844B5
:105580000B910D9900EBC100D0E900230F93304639
:105590000A920B99FAF776FFCDE90601DDE90A21B7
:1055A00030460F9BFAF7CDFE02460B460020EA4933
:1055B000FAF76EFF059102460B460090DDE9060101
:1055C000FBF715F91490E5488A464FF00008784437
:1055D0000299006812904FF0005040EA61010D9866
:1055E0000F9B01EB804000F5002109910A9A129867
:1055F000FAF748FF32460B9BFAF747FF42465346FD
:10560000FBF7F5F80646029140465146099B129A6F
:10561000FBF7EDF8DDE90623FAF737FF3246029B88
:10562000FAF730FF059B009AFBF7E1F80091149A16
:105630000490534610461946FBF7D9F80646024631
:10564000C7480B46029106217844FFF70BFACDE9D3
:105650000510029B324610461946FBF7C8F8DDE9F3
:105660000532FBF7C4F805910646534640461946F5
:10567000149AFAF766FE009B049AFBF7B8F83246D4
:10568000059BFAF75EFECDE90510424653461046EB
:105690001946FBF7ACF80022B24B02910A90FAF7D8
:1056A00050FEDDE90532FAF74CFE0E464246AD4BA0
:1056B0004046FAF7E7FE029B0A9AFAF7E3FEDDE9B5
:1056C0000532FAF7E2FE424602910A90334610464E
:1056D0005146FBF78CF8CDE906015346149A02991E
:1056E0000A98FBF784F88A460290334642460099AE
:1056F0000498FBF77CF85346029AFAF722FE82469A
:105700000B4602460591DDE90601FAF71AFEDDE9CE
:105710000623002088460646FAF7B4FE5246059B4B
:10572000FAF7B3FE824609914FF060428E4B304645
:105730004146FBF75CF8049006918C4A8A4B504630
:105740000999FBF754F882460291894A894B304601
:105750004146FBF74CF85246029BFAF7F2FD864BA6
:105760007B440D9A03EBC203D3E90023FAF7E9FD6A
:105770000E9007910198FBF7C3F80591DDE9061338
:1057800082460E9A0498FAF7DCFD7C4A7A440D9B17
:1057900002EBC303D3E9002300930292FAF7D1FD91
:1057A0005246059BFAF7CDFD002688465246304604
:1057B000059BFAF767FE009B029AFAF763FE069BC9
:1057C000049AFAF75FFE079B0E9AFAF75EFE02460E
:1057D00000200B46029038462946FBF708F882461F
:1057E00001912B4638461946029AFAF74BFE32468B
:1057F0004346FAF7FCFF5246019BFAF7A2FD074623
:105800008A463246434629460298FAF7F0FF054693
:105810000E463A465346FAF794FD594A8846914255
:1058200021DBA8EB020353EA000210D12A463346DB
:10583000FAF728FECDE90401524A534B3846514647
:10584000FAF77FFDDDE90423FBF76CF821D2022093
:10585000FFF78EF9FFF76CF90A46214618B062F39C
:105860001E01BDE8F08D494B28F000429A4210D34A
:10587000474A08EB020353EA00027FF4C6AD2A460A
:105880003346FAF7FFFD3A465346FBF74BF87FF6EF
:10589000BCAD0022019228F000403E493E4A01EB97
:1058A0002051824223DA481C4FF4801121FA00F083
:1058B00040443A4AC0F30A517A44394BA1F2FF31CD
:1058C000CB4020EA0303C0F3130040F48010C1F181
:1058D0001401C84012680190B8F1000FBCBF4042EB
:1058E000019028463146FAF7CDFD05460E462A4678
:1058F000334638465146FAF724FD4FF00008424639
:10590000284B40460591FAF772FFCDE90601264A79
:10591000264B40460599FAF76AFF009102902A4605
:10592000334640460599FAF7ADFD3A465346FAF735
:10593000ACFD1F4A1F4BFAF75AFF009B029AFAF779
:1059400000FD0746884602460B4635E08E98030068
:105950007AB60B00AE0500000000F03FE60500003F
:10596000140500000000084009C7EE3FFD033ADCC3
:10597000F5015B14E02F3EBEEC030000B003000015
:1059800000009040FE822B654715973C00CC90406C
:1059900000346F3F01FCFFFF0000E03FFC0200000D
:1059A000FFFF0F00432EE63F396CA80C615C20BE60
:1059B000EF39FAFE422EE63FDDE90601FAF7C1FCB7
:1059C000DDE9062305460E46FAF75CFD3A464346F6
:1059D000FAF75BFD0F462A463346009010461946FB
:1059E000FAF705FF824602462E4888460B460521F7
:1059F0007844FFF737F852464346FAF7F8FE2A464E
:105A00003346FAF742FD80468A463B4628463146F1
:105A1000009AFAF7ECFE3B46009AFAF792FC0691E0
:105A2000009000224FF0804340465146FAF72AFD8D
:105A30000F460C904246534628463146FAF7D7FEA9
:105A40003B460C9AFAF724FD069B009AFAF71AFDDA
:105A50002A463346FAF716FD0022134BFAF715FDD6
:105A6000054601980E4601EB00510815002810DC90
:105A700028463146019AFAF72CFFFEF7CFFF04289B
:105A800008BFFFF75DF828463146019AFAF721FF73
:105A900005460B4618B02A4658462146BDE8F04D4B
:105AA000FAF7A5BE9C0100000000F03F2DE9F0418F
:105AB00006460F46FAF760FF041E0D4618BF012088
:105AC000284320F00040C0F17F6000F1E040C00FAB
:105AD0000ED0301C18BF0120384320F00040C0F128
